{
  "contractName": "YieldOptimization",
  "abi": [
    {
      "inputs": [
        {
          "internalType": "address",
          "name": "_priceFeed",
          "type": "address"
        }
      ],
      "stateMutability": "nonpayable",
      "type": "constructor"
    },
    {
      "anonymous": false,
      "inputs": [
        {
          "indexed": false,
          "internalType": "int256",
          "name": "price",
          "type": "int256"
        }
      ],
      "name": "HistoricalPrice",
      "type": "event"
    },
    {
      "anonymous": false,
      "inputs": [
        {
          "indexed": false,
          "internalType": "int256",
          "name": "price",
          "type": "int256"
        }
      ],
      "name": "LatestPrice",
      "type": "event"
    },
    {
      "inputs": [],
      "name": "INTEREST_RATE",
      "outputs": [
        {
          "internalType": "uint256",
          "name": "",
          "type": "uint256"
        }
      ],
      "stateMutability": "view",
      "type": "function"
    },
    {
      "inputs": [
        {
          "internalType": "address",
          "name": "",
          "type": "address"
        }
      ],
      "name": "deposits",
      "outputs": [
        {
          "internalType": "uint256",
          "name": "",
          "type": "uint256"
        }
      ],
      "stateMutability": "view",
      "type": "function"
    },
    {
      "inputs": [],
      "name": "totalDeposits",
      "outputs": [
        {
          "internalType": "uint256",
          "name": "",
          "type": "uint256"
        }
      ],
      "stateMutability": "view",
      "type": "function"
    },
    {
      "inputs": [],
      "name": "getLatestPrice",
      "outputs": [
        {
          "internalType": "int256",
          "name": "",
          "type": "int256"
        }
      ],
      "stateMutability": "view",
      "type": "function"
    },
    {
      "inputs": [
        {
          "internalType": "uint80",
          "name": "_roundId",
          "type": "uint80"
        }
      ],
      "name": "getHistoricalPrice",
      "outputs": [
        {
          "internalType": "int256",
          "name": "",
          "type": "int256"
        }
      ],
      "stateMutability": "view",
      "type": "function"
    },
    {
      "inputs": [],
      "name": "provideLiquidity",
      "outputs": [],
      "stateMutability": "payable",
      "type": "function"
    },
    {
      "inputs": [],
      "name": "yieldFarm",
      "outputs": [],
      "stateMutability": "nonpayable",
      "type": "function"
    },
    {
      "inputs": [],
      "name": "emitLatestPrice",
      "outputs": [],
      "stateMutability": "nonpayable",
      "type": "function"
    },
    {
      "inputs": [
        {
          "internalType": "uint80",
          "name": "_roundId",
          "type": "uint80"
        }
      ],
      "name": "emitHistoricalPrice",
      "outputs": [],
      "stateMutability": "nonpayable",
      "type": "function"
    }
  ],
  "bytecode": "0x608060405234801561001057600080fd5b50604051610bc7380380610bc78339818101604052810190610032919061008d565b806000806101000a81548173ffffffffffffffffffffffffffffffffffffffff021916908373ffffffffffffffffffffffffffffffffffffffff160217905550506100ff565b600081519050610087816100e8565b92915050565b60006020828403121561009f57600080fd5b60006100ad84828501610078565b91505092915050565b60006100c1826100c8565b9050919050565b600073ffffffffffffffffffffffffffffffffffffffff82169050919050565b6100f1816100b6565b81146100fc57600080fd5b50565b610ab98061010e6000396000f3fe6080604052600436106100865760003560e01c80637d882097116100595780637d8820971461010057806386f7d0771461012b5780638e15f47314610142578063eec377c01461016d578063fc7e286d146101aa57610086565b806305b4b1981461008b5780631e092efb146100b45780635b72a33a146100cb57806360c97b22146100f6575b600080fd5b34801561009757600080fd5b506100b260048036038101906100ad919061069d565b6101e7565b005b3480156100c057600080fd5b506100c961022f565b005b3480156100d757600080fd5b506100e0610385565b6040516100ed9190610845565b60405180910390f35b6100fe61038a565b005b34801561010c57600080fd5b5061011561043e565b6040516101229190610845565b60405180910390f35b34801561013757600080fd5b50610140610444565b005b34801561014e57600080fd5b5061015761048a565b60405161016491906107ea565b60405180910390f35b34801561017957600080fd5b50610194600480360381019061018f919061069d565b610538565b6040516101a191906107ea565b60405180910390f35b3480156101b657600080fd5b506101d160048036038101906101cc9190610674565b6105f3565b6040516101de9190610845565b60405180910390f35b60006101f282610538565b90507f1719122273c1ffcaa485e7a0c88d4cb86e3d41a49e02d3a2c62ce1c99fbd326a8160405161022391906107ea565b60405180910390a15050565b6000600160003373ffffffffffffffffffffffffffffffffffffffff1673ffffffffffffffffffffffffffffffffffffffff16815260200190815260200160002054116102b1576040517f08c379a00000000000000000000000000000000000000000000000000000000081526004016102a890610805565b60405180910390fd5b6000600160003373ffffffffffffffffffffffffffffffffffffffff1673ffffffffffffffffffffffffffffffffffffffff168152602001908152602001600020549050600060646005836103069190610913565b61031091906108e2565b905080600160003373ffffffffffffffffffffffffffffffffffffffff1673ffffffffffffffffffffffffffffffffffffffff1681526020019081526020016000206000828254610361919061088c565b92505081905550806002600082825461037a919061088c565b925050819055505050565b600581565b600034116103cd576040517f08c379a00000000000000000000000000000000000000000000000000000000081526004016103c490610825565b60405180910390fd5b34600160003373ffffffffffffffffffffffffffffffffffffffff1673ffffffffffffffffffffffffffffffffffffffff168152602001908152602001600020600082825461041c919061088c565b925050819055503460026000828254610435919061088c565b92505081905550565b60025481565b600061044e61048a565b90507fe7ddd0def6622e89e7d510de5d21898b07059eec7bf3bcb2d18afbae69ac87678160405161047f91906107ea565b60405180910390a150565b60008060008054906101000a900473ffffffffffffffffffffffffffffffffffffffff1673ffffffffffffffffffffffffffffffffffffffff1663feaf968c6040518163ffffffff1660e01b815260040160a06040518083038186803b1580156104f357600080fd5b505afa158015610507573d6000803e3d6000fd5b505050506040513d601f19601f8201168201806040525081019061052b91906106c6565b5050509150508091505090565b60008060008054906101000a900473ffffffffffffffffffffffffffffffffffffffff1673ffffffffffffffffffffffffffffffffffffffff16639a6fc8f5846040518263ffffffff1660e01b81526004016105949190610860565b60a06040518083038186803b1580156105ac57600080fd5b505afa1580156105c0573d6000803e3d6000fd5b505050506040513d601f19601f820116820180604052508101906105e491906106c6565b50505091505080915050919050565b60016020528060005260406000206000915090505481565b60008135905061061a81610a27565b92915050565b60008151905061062f81610a3e565b92915050565b60008151905061064481610a55565b92915050565b60008135905061065981610a6c565b92915050565b60008151905061066e81610a6c565b92915050565b60006020828403121561068657600080fd5b60006106948482850161060b565b91505092915050565b6000602082840312156106af57600080fd5b60006106bd8482850161064a565b91505092915050565b600080600080600060a086880312156106de57600080fd5b60006106ec8882890161065f565b95505060206106fd88828901610620565b945050604061070e88828901610635565b935050606061071f88828901610635565b92505060806107308882890161065f565b9150509295509295909350565b6107468161097f565b82525050565b600061075960198361087b565b91507f4e6f206465706f7369747320746f207969656c64206661726d000000000000006000830152602082019050919050565b600061079960188361087b565b91507f596f75206d7573742073656e6420736f6d6520457468657200000000000000006000830152602082019050919050565b6107d5816109a9565b82525050565b6107e4816109b3565b82525050565b60006020820190506107ff600083018461073d565b92915050565b6000602082019050818103600083015261081e8161074c565b9050919050565b6000602082019050818103600083015261083e8161078c565b9050919050565b600060208201905061085a60008301846107cc565b92915050565b600060208201905061087560008301846107db565b92915050565b600082825260208201905092915050565b6000610897826109a9565b91506108a2836109a9565b9250827fffffffffffffffffffffffffffffffffffffffffffffffffffffffffffffffff038211156108d7576108d66109c9565b5b828201905092915050565b60006108ed826109a9565b91506108f8836109a9565b925082610908576109076109f8565b5b828204905092915050565b600061091e826109a9565b9150610929836109a9565b9250817fffffffffffffffffffffffffffffffffffffffffffffffffffffffffffffffff0483118215151615610962576109616109c9565b5b828202905092915050565b600061097882610989565b9050919050565b6000819050919050565b600073ffffffffffffffffffffffffffffffffffffffff82169050919050565b6000819050919050565b600069ffffffffffffffffffff82169050919050565b7f4e487b7100000000000000000000000000000000000000000000000000000000600052601160045260246000fd5b7f4e487b7100000000000000000000000000000000000000000000000000000000600052601260045260246000fd5b610a308161096d565b8114610a3b57600080fd5b50565b610a478161097f565b8114610a5257600080fd5b50565b610a5e816109a9565b8114610a6957600080fd5b50565b610a75816109b3565b8114610a8057600080fd5b5056fea2646970667358221220cf5b9e230ab88628706db00d78f63b079191bd39636489bb5b0f60ab077c754a64736f6c63430008000033",
  "immutableReferences": {},
  "source": "// SPDX-License-Identifier: MIT\npragma solidity ^0.8.0;\n\nimport \"@chainlink/contracts/src/v0.8/interfaces/AggregatorV3Interface.sol\";\n\ncontract YieldOptimization {\n    AggregatorV3Interface internal priceFeed;\n\n    mapping(address => uint256) public deposits;\n    uint256 public totalDeposits;\n\n    // Interest rate for yield farming (e.g., 5%)\n    uint256 public constant INTEREST_RATE = 5;\n\n    constructor(address _priceFeed) {\n        priceFeed = AggregatorV3Interface(_priceFeed);\n    }\n\n    function getLatestPrice() public view returns (int) {\n        (, int price, , ,) = priceFeed.latestRoundData();\n        return price;\n    }\n\n    function getHistoricalPrice(uint80 _roundId) public view returns (int) {\n        (, int price, , ,) = priceFeed.getRoundData(_roundId);\n        return price;\n    }\n\n    function provideLiquidity() public payable {\n        require(msg.value > 0, \"You must send some Ether\");\n        deposits[msg.sender] += msg.value;\n        totalDeposits += msg.value;\n    }\n\n    function yieldFarm() public {\n        require(deposits[msg.sender] > 0, \"No deposits to yield farm\");\n\n        uint256 initialDeposit = deposits[msg.sender];\n        uint256 yield = (initialDeposit * INTEREST_RATE) / 100;\n\n        deposits[msg.sender] += yield;\n        totalDeposits += yield;\n    }\n\n    event LatestPrice(int price);\n    event HistoricalPrice(int price);\n\n    function emitLatestPrice() public {\n        int price = getLatestPrice();\n        emit LatestPrice(price);\n    }\n\n    function emitHistoricalPrice(uint80 _roundId) public {\n        int price = getHistoricalPrice(_roundId);\n        emit HistoricalPrice(price);\n    }\n}\n",
  "sourcePath": "/Users/chotu/Documents/BlockChain/Block_Magic/cross-chain-defi/contracts/YieldOptimization.sol",
  "compiler": {
    "name": "solc",
    "version": "0.8.0+commit.c7dfd78e.Emscripten.clang"
  },
  "schemaVersion": "3.4.16",
  "updatedAt": "2024-06-03T03:10:07.539Z",
  "devdoc": {
    "kind": "dev",
    "methods": {},
    "version": 1
  },
  "userdoc": {
    "kind": "user",
    "methods": {},
    "version": 1
  }
}